:020000040800F2
:10000000580600204501000823200008331C000882
:1000100021200008250400084928000800000000ED
:100020000000000000000000000000007F22000827
:1000300037040008000000007D220008812200082B
:100040005F0100085F0100085F0100085F01000810
:100050005F0100085F0100085F0100085F01000800
:100060005F0100085F0100085F0100085F010008F0
:100070005F0100085F0100085F0100085F010008E0
:100080005F0100085F0100085F0100085F010008D0
:100090005F0100085F0100085F0100085F010008C0
:1000A0005F0100085F0100085F0100085F010008B0
:1000B000E5220008F1220008FD2200085F01000887
:1000C0005F0100085F0100085F0100085F01000890
:1000D0005F0100083D2800085F0100085F0100087B
:1000E0005F0100085F0100085F0100085F01000870
:1000F0005F0100085F0100085F0100085F01000860
:100100005F0100085F010008092300085F01000883
:100110005F0100085F0100085F0100085F0100083F
:100120005F0100085F0100085F0100085F0100082F
:10013000DFF80CD000F064F900480047F928000807
:10014000580600200648804706480047FEE7FEE7BD
:10015000FEE7FEE7FEE7FEE7FEE7FEE7FEE7FEE777
:10016000E322000831010008D2B201E000F8012BBF
:10017000491EFBD270470022F6E710B513460A4627
:1001800004461946FFF7F0FF204610BDF0B480EAA0
:100190000102D40F4200B2EB410F02D202460846E0
:1001A00011464A0042D0C30DDDB2C1F3C752AD1AA9
:1001B000202D35DAC1F3160141F4000204B1524298
:1001C000C5F1200602FA06F12A411044B3EBD05FD4
:1001D00023D0C4B1012DA0EBC35009DCF0BC4FF01B
:1001E000004202EAC352DBB200F5000000F0DAB8C8
:1001F000400000F1807000EBC350A0F1807040EA35
:10020000D170490009E0490841EAC071A0EBC35030
:1002100000F50000400800EBC350F0BC00F0B9B896
:100220006142012202EB4101001BF6E7F0BC70477E
:1002300081F00041AAE780F00040A7E780EA0102D0
:1002400010B502F00043400022D04A001FD0010E3A
:1002500001EB1261C0F35600C2F3560240F40000F5
:1002600042F40002A0FB022000047F39140400D0F5
:10027000401C50EA124001D44000491EC2B20C0694
:1002800004EBD010401C4008802A02D003E000207C
:1002900010BD20F00100002900DA0020184310BD35
:1002A00030B480EA010202F0004530F0004221F053
:1002B000004013D090B1C30DD40DC2F31601C0F3AA
:1002C0001600E41A41F4000140F400027D3491422A
:1002D00001D3641C00E04900002C02DA30BC00208D
:1002E00070474FF400000023914201D3891A034361
:1002F00040084FEA4101F7D151B1914202D14FF08C
:10030000004105E002D24FF0010101E06FF0010170
:1003100003EBC450284430BC00F03BB8C10F80EA66
:10032000E0700844CA079623002100F03BB89623EA
:100330000022114600F036B800F0004220F00040E4
:10034000C10DC0F3160040F400007F2901DA00203F
:100350007047962903DCC1F19601C84001E0963947
:100360008840002AF4D04042704720F00040C10D80
:10037000C0F3160040F400007F2901DA0020704726
:10038000962903DCC1F19601C84070479639884030
:1003900070470029A8BF7047401C490008BF20F0E3
:1003A0000100704710B4B0FA80FC00FA0CF050EA7B
:1003B000010404BF10BC704749B1CCF1200421FAFC
:1003C00004F411FA0CF118BF012121430843A3EBF7
:1003D0000C01CB1D4FEA00614FEA102042BF002004
:1003E00010BC704700EBC35010440029A4BF10BCE0
:1003F0007047401C490008BF20F0010010BC704746
:10040000064C074D06E0E06840F0010394E8070061
:1004100098471034AC42F6D3FFF78EFE542A0008FA
:10042000742A0008FEE700210A464254491CC9B25A
:100430000529FAD37047704772B6FEE710B590F8F9
:1004400021100022022905D00421816380F8202098
:10045000012010BD01680B6823F00E030B600168DA
:100460000B6823F001030B6090F84030C46B01214E
:1004700001FA03F3636080F8211080F82020104611
:1004800010BD00002DE9F05F90F821100024022932
:1004900003D004218163012485E001680A6822F009
:1004A0000E020A6001680A6822F001020A603F4EEB
:1004B0003E4FB215DFF8F4C0DFF8F090DFF8ECA0A3
:1004C000DFF8E8B0DFF8E4E00168783F13011502D7
:1004D000ACF1640CA9F15009AAF13C0AABF1280B6C
:1004E000AEF1140E4FF48018B14227D9B9420ED0A4
:1004F000614512D049451DD0514518D0594518D0F5
:10050000714501D1424615E0294EB14201D1012287
:1005100010E0274E1436B14201D110220AE0244ED9
:100520002836B14206D0224A3C32914201D11A46C5
:1005300000E02A461E49091F0A602BE0B94213D089
:10054000614517D0494522D051451DD059451DD090
:10055000714501D142461AE0B14202D14FF080729A
:1005600015E0134EB14201D1012210E0104E1436B5
:10057000B14201D110220AE00D4E2836B14206D018
:100580000B4A3C32914201D11A4600E02A46074903
:1005900080394A60012180F82110002180F8201064
:1005A000416B01B188472046BDE8F09F80000240C2
:1005B0000804024070B5044600F010F90546601CBE
:1005C00002D004480078044400F008F9401BA0421F
:1005D000FAD370BD280000202DE9F84FDFF8C8914C
:1005E0000024A9F1040B23460F2709F1040AABF1FB
:1005F000040ED1E00125A54006EA0502AA4276D103
:10060000DFF8A8C14E68A6EB0C0866452BD00DDCC0
:10061000032E34D005DC36B3012E19D0022E2FD193
:100620001BE0112E16D0122E2AD119E0B8F5881F22
:1006300019D006DCB8F5803F15D0B8F5801F1FD162
:1006400011E0B8F5001F0ED0B8F5041F18D10AE06C
:10065000CB6815E0CB681B1D12E0CB6808330FE0B8
:10066000CB680C330CE08B682BB1012B4FF00803E7
:1006700003D0456104E0042302E0056100E00023AB
:10068000FF2A01D8064601E000F104064FEA84057E
:1006900001D9A5F12005D6F8008007FA05FC28EA63
:1006A0000C0803FA05F548EA0508C6F800804D680D
:1006B000ED0070D53E4DAE6946F00106AE61AD6904
:1006C00024F0030605F0010500953A4D06EB050CF4
:1006D000DCF80850A607360F07FA06F825EA0805E1
:1006E000DFF8D480404503D14FF0000825E052E008
:1006F000DFF8C880404502D14FF001081DE0DFF867
:10070000C080404502D14FF0020816E0DFF8B48007
:10071000404502D14FF003080FE0DFF8AC804045C0
:1007200002D14FF0040808E0DFF8A080404502D174
:100730004FF0050801E04FF0060808FA06F848EA0D
:100740000508CCF808804D68D9F80060ED024D46E8
:1007500001D5164300E096432E604D68DAF800603C
:10076000AD02554601D5164300E096432E604D6814
:10077000DBF80060AD035D4601D5164300E096430B
:100780002E604D68DEF80060ED03754601D5164316
:1007900000E096432E60641C0A681646E2407FF42F
:1007A00029AFBDE8F88F00000804014000001110D7
:1007B000001002400000014000080140000C014010
:1007C000001001400014014000180140001C0140CD
:1007D0000AB1016170470904FBE700000148806825
:1007E0007047000028000020024881680278114408
:1007F0008160704728000020074810B5016841F06B
:1008000010010160032000F075F80F2000F006F8D9
:1008100000F024F8002010BD0020024070B50D4DFE
:1008200004464FF47A712878B1FBF0F00A49096860
:10083000B1FBF0F000F0DCFA48B9102C07D200222E
:100840002146501E00F036F800206C6070BD01207B
:1008500070BD000028000020340000200C4808B5BE
:10086000816941F001018161816901F0010100911B
:10087000C16941F08051C161C06900F080500090B1
:100880000448416821F0E06141F00071416008BD19
:100890000010024000000140002809DB00F01F02A8
:1008A000012191404009800000F1E020C0F80011D2
:1008B00070470000F0B40E4B1B680C46C3F30223D4
:1008C000C3F10705042D00D90425191D072901D2FC
:1008D000002300E0DB1E012606FA05F1491E214037
:1008E00099409E40761E16403143F0BC01F0ADBFEA
:1008F0000CED00E0064900F0070208684FF6FF0320
:10090000184040EA0220034A104308607047000084
:100910000CED00E00000FA052DE9F0470F46050058
:1009200061D0434E306800F00700B84209D2306809
:1009300020F0070038433060306800F00700B8420C
:1009400051D128683B4C810712D5400703D5606818
:1009500040F4E06060602878000703D5606840F4E8
:10096000605060606068A96820F0F0000843606033
:100970002878C00728D06868012810D0216802288C
:1009800010D0890700292EDA616821F003010143A4
:100990006160FFF723FF804641F288390DE021684E
:1009A0008903EFE78901EDE7FFF718FFA0EB0801E6
:1009B000494502D90320BDE8F0876068696800F006
:1009C0000C00B0EB810FEFD1306800F00700B842A7
:1009D0000BD9306820F0070038433060306800F0F1
:1009E0000700B84201D00120E5E72878400705D587
:1009F0006068E96820F4E0600843606028780007D8
:100A000006D56068296920F4605040EAC100606042
:100A100000F038F86168084AC1F30311515CC8401E
:100A20000649086006480068FFF7F8FE0020C2E7A4
:100A300000200240001002403A2A00083400002042
:100A40002C0000200448054900684968044AC1F3A5
:100A50000221515CC8407047340000200010024061
:100A60004A2A00080448054900684968044AC1F355
:100A7000C221515CC8407047340000200010024081
:100A80004A2A00080E4A51680E4801F00C03042B54
:100A900011D0082B0FD10C48C1F38343C903C05CAC
:100AA0000AD55168084AC1F34041921E515C054A7B
:100AB0005043B0FBF1F070470449484370470000D1
:100AC0000010024000127A002A2A000800093D00A6
:100AD0002DE9F84F040070D02078C04DC00749D0F0
:100AE0006868C0F38100012807D06868C0F38100FE
:100AF000022809D16868C00306D52868800339D563
:100B000060680028E7D035E06068B0F5803F0BD022
:100B100010B1B0F5A02F11D0286820F480302860E3
:100B2000286820F4802002E0286840F480302860A3
:100B3000606890B1FFF752FE06460AE0286840F46C
:100B400080202860F0E700BFFFF748FE801B642884
:100B500073D828688003F7D50CE0FFF73FFE064600
:100B600005E000BFFFF73AFE801B6428F0D8286834
:100B70008003F7D420789A4E80074FF001094FF098
:100B8000000839D5686810F00C0F07D06868C0F30A
:100B90008100022809D16868C00306D4286880074C
:100BA00014D52069012808D110E02069B0B1C6F839
:100BB0000090FFF713FE074605E00AE1FFF70EFE7F
:100BC000C01B0228C4D828688007F7D52868616947
:100BD00020F0F80040EAC10028600DE0C6F800806F
:100BE000FFF7FCFD074604E0FFF7F8FDC01B0228F5
:100BF00023D828688007F7D4207800072CD57948B7
:100C0000A169D9B1C0F80090FFF7E8FD074604E0FC
:100C1000FFF7E4FDC01B02280FD8686A8007F7D5EC
:100C200071484FF4FA510068B0FBF1F0009000BF3A
:100C30000098411E0091FAD20EE080E0C0F80080DA
:100C4000FFF7CCFD074604E0FFF7C8FDC01B0228F4
:100C500075D8686A8007F7D42078400760D5E869BE
:100C60000027C00008D4E86940F08050E861E869D6
:100C7000012700F0805000905C480168C90513D43A
:100C80000168834641F480710160FFF7A7FD824649
:100C900006E000BFFFF7A2FDA0EB0A0064284ED8D3
:100CA000DBF80000C005F5D5E06801280AD008B1DE
:100CB000052813D0286A20F001002862286A20F055
:100CC000040002E0286A40F001002862E06841F276
:100CD000883B98B1FFF782FD82460BE0286A40F01E
:100CE00004002862EEE700BFFFF778FDA0EB0A01E1
:100CF00059455AD8286A8007F6D50CE0FFF76EFDF3
:100D0000824605E0FFF76AFDA0EB0A0159454CD881
:100D1000286A8007F6D41FB1E86920F08050E861A6
:100D2000E06988B36968C1F38101022944D00228CF
:100D3000C6F8608004D0FFF751FD044638E034E087
:100D4000FFF74CFD074604E0FFF748FDC01B0228F3
:100D50002BD828688001F7D4206AB0F5803F05D1F0
:100D60006868A16820F4003008436860D4E908018D
:100D70000843696821F4741108436860C6F86090FC
:100D8000FFF72CFD044606E025E000BFFFF726FD37
:100D9000001B022809D828688001F7D51BE000BF96
:100DA000FFF71CFD001B022802D90320BDE8F88FC5
:100DB00028688001F4D40EE00128F7D06868226A20
:100DC00000F48031914204D1616A00F470108842CD
:100DD00001D00120EAE70020E8E70000001002400F
:100DE0000000424280044242340000200070004073
:100DF00010B5401EB0F1807F01D3012010BD4FF02F
:100E0000E02460610F21601701F01FFD0020A06148
:100E100007202061002010BD7047704710B590F882
:100E20003C20012A22D0012280F83C20CA688C682C
:100E300022F4407222434C6822F4806222430C6800
:100E400022F4006222430C6922F4805222434C694E
:100E500022F400522243C969002322F480420A434B
:100E600001684A6480F83C30002010BD022010BDAB
:100E700070B590F83C20012A2CD0012480F83C4029
:100E8000022280F83D2003685A689D6822F07006AF
:100E90000A6832435A60104B02689A420ED00F4BD8
:100EA0009A420BD0B2F1804F08D00D4B9A4205D038
:100EB0000C4B9A4202D00C4B9A4204D1496825F05F
:100EC00080031943916080F83D40002180F83C1078
:100ED000084670BD022070BD002C01400034014066
:100EE0000004004000080040000C004010B5040061
:100EF00003D094F83D0010B107E0012010BD0020A0
:100F000084F83C00204600F01FF8022084F83D00E1
:100F1000211D206801F0FEF9012084F8460084F8C4
:100F20003E0084F83F0084F8400084F8410084F8D3
:100F3000420084F8430084F8440084F8450084F8B3
:100F40003D00002010BD000008B5154A0168154895
:100F500091420ED1C16941F00401C161C069002212
:100F600000F00400009011461E20FFF7A3FC1E2095
:100F700010E00D4A914211D1C16941F00801C161EF
:100F8000C069002200F00800009011463220FFF7EF
:100F900091FC3220BDE80840FFF77EBC08BD000090
:100FA0000008004000100240000C004090F83D1086
:100FB000012901D001207047022180F83D1001680D
:100FC000CA6842F00102CA6000680E4988420ED029
:100FD0000D4988420BD0B0F1804F08D00B498842B0
:100FE00005D00B49884202D00A49884204D1816861
:100FF00001F00701062903D0016841F001010160F9
:1010000000207047002C01400034014000040040E3
:1010100000080040000C004070B5044690F83C0009
:101020000025012817D0012684F83C60022084F8AE
:101030003D002068826822F0770222F47F428260BD
:101040000868502838D00DDC20284FD005DC90B33C
:10105000102811D14AE0022070BD302846D0402827
:101060000AD13BE060282FD070280DD0B0F5805F0A
:1010700003D0B0F5005F12D0012584F83D60002058
:1010800084F83C00284670BDCB68D1E90121206876
:1010900001F09BF92068816841F0770109E0CB6895
:1010A000D1E90121206801F090F92068816841F4BC
:1010B00080418160E1E719E0CA684968206801F071
:1010C00059FA5021206806E0CA684968206801F092
:1010D00062FA6021206801F082F9CEE7CA684968A7
:1010E000206801F047FA40212068F4E722680146B1
:1010F0001046F0E72DE9F0410D46040003D094F8C6
:101100003D0018B108E00120BDE8F081002084F81E
:101110003C00204600F040F8022084F83D002068A2
:10112000816844F2070291438160211D206801F02B
:10113000F1F8226890689169166A2B68AF690343D9
:1011400040F20330814341EA0721A868EF69084370
:101150004FF6FC418843E96840EA072001432869CB
:101160002F6A000140EA0730084369686D6926F07C
:10117000220646EA0515294393602268906154F8D7
:10118000460B0162012004F81F09E0752076E07625
:101190002077A0750020B7E700B585B00021009149
:1011A000019102910391026821492248B2F1804FD6
:1011B00022D0214B9A421DD1CA6942F00202CA6173
:1011C000CA6902F0020204928A6942F004028A614A
:1011D000896901F004010491C02100916946FFF77B
:1011E000FBF9002211461D20FFF764FB5FF01D0094
:1011F000FFF752FB05B000BDCA6942F00102CA61A7
:10120000CA6902F0010204928A6942F004028A610A
:10121000896901F004010491032100916946FFF7F7
:10122000DBF9002211461C20FFF744FB1C20DFE7FE
:1012300000100240000801400004004070B590F822
:101240003E60044690F83F5090F8423090F84320BA
:10125000022021B1042914D0012E25D11EE0012E37
:1012600022D1012B20D184F83E0084F842000122D3
:101270000021206801F09CF82068C16841F002015B
:101280002FE0012D10D1012A0ED184F83F0084F8FF
:1012900043000421206801F08BF81EE0012D03D1EA
:1012A000012B01D1012A01D0012070BD84F83E003C
:1012B00084F83F0084F8420084F8430001220021B2
:1012C000206801F075F801220421206801F070F80F
:1012D0002068C16841F00201C1602068C16841F026
:1012E0000401C1602068016841F001010160002033
:1012F00070BD70472DE9F04104460068C668056975
:101300004FF00007A90713D5B10711D5F91E0161E8
:1013100001202077206880698007204602D0FFF7EF
:10132000E8FF04E000F0BAF8204600F06BF92777F8
:10133000680716D5700714D521686FF0040008619E
:10134000022020772068806910F4407F204602D078
:10135000FFF7CFFF04E000F0A1F8204600F052F9BB
:101360002777280715D5300713D521686FF00800B7
:101370000861042020772068C0698007204602D0D9
:10138000FFF7B7FF04E000F089F8204600F03AF9D3
:101390002777E80616D5F00614D521686FF01000FF
:1013A0000861082020772068C06910F4407F20463B
:1013B00002D0FFF79EFF04E000F070F8204600F036
:1013C00021F92777E80708D0F00706D021686FF0E9
:1013D00001000861204600F071F9280608D53006A2
:1013E00006D521686FF0800008612046FFF714FDE4
:1013F000680608D5700606D521686FF040000861C0
:10140000204600F0A1F9A8060AD5B00608D5216843
:101410006FF0200008612046BDE8F041FFF7FDBCF9
:10142000BDE8F08100B585B00021009101910291E5
:101430000391154B0268154802219A420ED1826928
:1014400042F0040282618069039100F0040004907C
:10145000C801CDE9000169460D4811E00D4B9A42E3
:1014600010D1826942F0100282618069039100F01C
:10147000100004904FF44070CDE900016946064821
:10148000FFF7AAF805B000BD002C01400010024093
:10149000000801400034014000100140704770B561
:1014A000044690F83C0000260D4601280FD001208C
:1014B00084F83C006AB1042A1DD0082A2FD00C2AD7
:1014C0003FD00126002084F83C00304670BD022049
:1014D00070BD206800F08CFF2068816941F0080130
:1014E00081612068816921F004018161206881693E
:1014F0002A69114311E0206800F0AAFF2068816981
:1015000041F4006181612068816921F48061816119
:10151000206881692A6941EA02218161D2E7206855
:1015200000F0CCFF2068C16941F00801C16120686A
:10153000C16921F00401C1612068C1692A691143B0
:1015400011E0206800F0EEFF2068C16941F40061FD
:10155000C1612068C16921F48061C1612068C169ED
:101560002A6941EA0221C161ACE710B5040003D049
:1015700094F83D0010B107E0012010BD002084F870
:101580003C00204600F01EF8022084F83D00211D9A
:10159000206800F0BFFE012084F8460084F83E0079
:1015A00084F83F0084F8400084F8410084F8420049
:1015B00084F8430084F8440084F8450084F83D0032
:1015C000002010BD08B50C4A01680C48914207D1B3
:1015D000816941F400618161806900F4006009E083
:1015E000074A914207D1816941F4005181618069C4
:1015F00000F40050009008BD002C01400010024093
:10160000003401407047000010B50446022249B181
:1016100004290ED0082913D094F84100012816D0CF
:10162000012010BD94F83E000128F9D184F83E2035
:101630000FE094F83F000128F2D184F83F2008E041
:1016400094F840000128EBD184F8402001E084F8B0
:1016500041200122206800F0ABFE13492068134AA4
:10166000884201D0904203D1436C43F40043436469
:10167000206888420DD090420BD0B0F1804F08D046
:101680000B49884205D00B49884202D00A4988425A
:1016900004D1816801F00701062903D0016841F0F7
:1016A00001010160002010BD002C01400034014008
:1016B0000004004000080040000C004070B50546E2
:1016C00000681B4CB0F1804F0DD01A4988421AD1E6
:1016D000194909680968C943CA06214691F90210E7
:1016E0000FD5491C0EE0154800680068C043C106CC
:1016F0000F4890F9010001D5401C00E0401E6070C9
:1017000070BD491EA1700E49884205D1206900F0C4
:1017100089FC606900F01CFD0A4928688842EFD105
:101720002189002009B1208170BD2061606170BDF8
:101730000000002000040040EC000020A400002075
:1017400000080040000C00407047704770470000E0
:10175000F8B5016804460868CA684B6910F00F0FB5
:101760004FF0000559D003F0010602F4907737439B
:1017700065D0C10705D0D10503D5616C41F00101E9
:101780006164410705D5D90703D0616C41F00201BE
:101790006164810705D5D90703D0616C41F004016C
:1017A0006164010707D502F02001314303D0616C69
:1017B00041F008016164616C00293AD0800604D5CB
:1017C000900602D5204600F027FF20684069616C32
:1017D000C0F38010090700D460B3204600F0F5FE86
:1017E00020684069400621D52068143050E8001F69
:1017F00021F0400140E80012002AF5D1E06BA8B1C9
:101800006D494163E06BFEF73DFE002811D0E06BAF
:10181000416B01B0BDE8F040084783060FD5930641
:101820000DD52046BDE8F84000F0F6BE2046FFF793
:101830008DFFF8BD2046FFF789FF6564F8BD266B74
:101840002023012E7CD1C6067AD5D60678D5086825
:101850004868009048694FF00206400640D5E16BA9
:10186000086840680004000CE8D0A28D8242E5D9E7
:10187000E085886920282DD020680C3050E8001FB2
:1018800021F4807140E80012002AF5D1206814305C
:1018900050E8001F21F0010140E80012002AF5D1B4
:1018A0002068143050E8001F21F0400140E8001289
:1018B000002AF5D184F84230256320680C3050E8C6
:1018C000001F21F0100140E80012002AF5D1E06B62
:1018D000FEF7B4FD6663A08DE18D401A81B22AE067
:1018E000A08DE18D401A81B2E08D0028A6D000299C
:1018F000A4D022680C3252E8000F20F4907042E825
:101900000007002FF5D12068143050E8002F22F096
:10191000010240E80027002FF5D184F8423025630A
:1019200020680C3050E8002F22F0100240E800231D
:10193000002BF5D166632046FFF707FFF8BDFFE7F0
:1019400005062BD5150629D594F841002128F5D197
:10195000A068B0F5805F01D12069B0B1206A411C58
:101960002162216800784860E08C401E0004000C71
:10197000E084E3D12068C16821F08001C160206863
:10198000C16841F04001C160D8E7206A0088C0F317
:1019900008004860206A801C2062E5E74006CDD53B
:1019A0005006CBD5CA68204622F04002CA6084F8AF
:1019B000413000F03DF9C1E7BB25000870B50400D7
:1019C00004D094F84100002510B106E0012070BD5C
:1019D00084F84050204600F023F8242084F8410089
:1019E0002068C16821F40051C160204600F076FEF5
:1019F0002068016921F4904101612068416921F06A
:101A00002A0141612068C16841F40051C1606564E8
:101A1000202084F8410084F842006563002070BDF6
:101A200030B585B0002400940194029403940068BA
:101A3000184988422CD11848816941F4804181615C
:101A4000816901F480410491816941F0040181615F
:101A50008069124D00F0040004904FF40070009073
:101A6000022001900320039069462846FEF7B4FD4A
:101A70002815CDE90004694628460294FEF7ACFD1E
:101A8000002211462520FEF715FF2520FEF704FF52
:101A900005B030BD00380140001002400008014090
:101AA00090F84230202B01D00220704721B11AB1AA
:101AB0000023036300F06EBE012070472DE9F04162
:101AC0000068304988425BD12F4800230146C27824
:101AD0008979012642B1012A0AD000F11804022AAC
:101AE0000AD0032A12D013E0562911D1C67015E08E
:101AF00091290DD1022107E00279A154521CD1B2E3
:101B0000017105290AD10321C17007E011290DD007
:101B1000C37003711C481830FEF785FCBDE8F04126
:101B200019490122891D1948FFF7BABFC370164928
:101B300003710C31227801F10C03427193F801C05A
:101B40009F78DD781C79183B1B895B1C9BB2AA2A05
:101B500005D0BB2A0BD0CC2AE0D10670DEE781F895
:101B600000C04F708D70CC700968016106E081F88B
:101B700000C04F708D70CC70096841610381CDE762
:101B8000BDE8F08100380140000000200C02002078
:101B90002DE9F843044690F84100984616460D4654
:101BA000202802D00220BDE8F88385B17EB1002054
:101BB0006064212084F84100FEF710FEA68481466F
:101BC000E684A0682027B0F5805F02D003E0012002
:101BD000E9E7206910B12E4600250EE000260CE052
:101BE0008021204600F0F1FDA8B9C6B116F8010B1E
:101BF00021684860E08C401EE084E08C4B464FF04A
:101C00000002CDF800800028EAD14FF040012046C4
:101C100000F0DBFD40B184F841700320C3E735F8E4
:101C2000020BC0F30800E3E784F841700020BAE734
:101C30007047FEE72DE9F04186B000252948009560
:101C4000019502950395816941F0100181618169D7
:101C500001F010010491816941F0200181618169E5
:101C600001F020010491816941F0040181618169E1
:101C700001F004010491816941F0080181618069EA
:101C8000194F00F008000490002210213846FEF79A
:101C90009FFDDFF8588000224FF440414046FEF798
:101CA00097FD102001260224CDE90006CDE902545B
:101CB00069463846FEF790FC60030090CDE9016468
:101CC000694640460394FEF787FCA003CDE9000671
:101CD000CDE9025469464046FEF77EFC06B0BDE8F9
:101CE000F08100000010024000100140000C014093
:101CF00010B592B000240F941C2108A81094FEF790
:101D00003AFA20216846FEF736FA20481E4901605B
:101D10004821C0E9011444F62061C0E9031444617C
:101D20008461FFF722FC08B1FEF786FB0F940FA930
:101D300016481094FFF79CF808B1FEF77DFB602071
:101D4000CDE908040A940B940C940D94002208A980
:101D50000E480E94FFF7A3FB08B1FEF76DFB00944D
:101D60004FF40050CDE90440029401940394694675
:101D700006480794FFF752F808B1FEF75DFB0348E9
:101D8000FFF750FB12B010BD002C01405C0000209A
:101D900010B58CB024216846FEF7EDF900241648F2
:101DA00009944FF080410A94C0E900144FF6FF7186
:101DB000C0E90241046184610320CDE900040120EF
:101DC000CDE902040221CDE90441CDE906046946CA
:101DD00009480894FFF78EF908B1FEF72DFB099426
:101DE00009A905480A94FFF743F8002801D0FEF737
:101DF00023FB0CB010BD0000A400002010B58CB077
:101E000024216846FEF7B7F90024164809941449BE
:101E10000A94C0E900144FF6FF71C0E90241046161
:101E200084610320CDE900040120CDE9020404947B
:101E3000CDE90540079469460A480894FFF75AF926
:101E400008B1FEF7F9FA099409A906480A94FFF7C0
:101E50000FF8002801D0FEF7EFFA0CB010BD00001B
:101E600000040040EC00002010B586B000241748A4
:101E7000009401940294039404941349059401601E
:101E8000C721C0E9011441F61F41C0E90314846170
:101E9000FFF72CF808B1FEF7CFFA4FF4805000900E
:101EA00069460A48FFF7B8F808B1FEF7C5FA049486
:101EB00004A906480594FEF7DBFF002801D0FEF7D1
:101EC000BBFA06B010BD000000080040340100203D
:101ED00010B586B00024174800940194029403942E
:101EE000049413490594016041F61F41C0E90114AF
:101EF00041F28731C0E903148461FEF7F7FF08B1AE
:101F0000FEF79AFA4FF48050009069460948FFF7AF
:101F100083F808B1FEF790FA049404A905480594E3
:101F2000FEF7A6FF002801D0FEF786FA06B010BD26
:101F3000000C00407C01002010B592B000240F94EA
:101F40001C2168461094FEF716F9202107A8FEF719
:101F500012F924482249C0E9001441F61F41C0E9A2
:101F60000241046144618461FFF7FFFA08B1FEF7A2
:101F700063FA0F940FA91B481094FEF779FF08B17C
:101F8000FEF75AFA6020CDE9000402940394049409
:101F900005940822694613480694FFF780FA08B1B1
:101FA000FEF74AFA0C2269460E48FFF778FA08B1A4
:101FB000FEF742FA0794089409944FF400500A94EB
:101FC000CDE90B4007A907480E94FEF727FF08B19B
:101FD000FEF732FA0348FFF725FA12B010BD0000F1
:101FE00000340140C40100200C4810B50A490160CA
:101FF0004FF416514160002181600C22C160C0E99C
:1020000004128161C161FFF7D9FC002803D0BDE84B
:102010001040FEF711BA10BD003801400C0200203C
:10202000FEE7FEE72DE9F047404F3F4E8046396816
:1020300096F90000DFF8E8903A4C496AC0EB00409E
:1020400008443B490860FEF769F93A49FEF7F6F89B
:102050003949FEF7F3F83949FEF722F9384A0146C3
:1020600002F108031060002003EB000C155C401C1B
:10207000C0B28CF802500428F6D34046FEF7D8F8D8
:10208000804601462046FEF7D9F82D4C05460C3C0B
:1020900040466168FEF7CCF84946FEF7CFF829467E
:1020A000FEF774F827490546C4F80480884201DD2C
:1020B0000D4603E02448854200D90546B4F90000E6
:1020C000FEF72CF92946FEF761F8FEF735F900B264
:1020D00040F6AC512080884201DD218006E01B499A
:1020E000884201DA21800BE0002808DD20884FF0CB
:1020F000010100F5D27000B200F0E2FB09E008DA5D
:10210000B4F900004FF00101C0F5D27000B200F048
:10211000BBFB3968002048623070BDE8F0870000E2
:102120000AD72340D7A3124201000020A4000020B8
:1021300020000020000048427B1462420038C7475C
:10214000440000200000FA430000FAC354F2FFFFED
:102150002DE9F047404F3F4E8046396896F9000020
:10216000DFF8E8903A4C496AC0EB004008443B492C
:102170000860FEF7D3F83A49FEF760F83949FEF7F0
:102180005DF83949FEF78CF8384A014602F10C0334
:102190001060002003EB000C155C401CC0B28CF8F2
:1021A00002500428F6D34046FEF742F88046014626
:1021B0002046FEF743F82D4C0546103C4046A168EA
:1021C000FEF736F84946FEF739F82946FDF7DEFFF7
:1021D00027490546C4F80880884201DD0D4603E022
:1021E0002448854200D90546B4F90200FEF796F866
:1021F0002946FDF7CBFFFEF79FF800B240F6AC5141
:102200006080884201DD618006E01B49884201DA76
:1022100061800BE0002808DD60884FF0020100F5C6
:10222000D27000B200F04CFB09E008DAB4F9020009
:102230004FF00201C0F5D27000B200F025FB396802
:10224000002048623070BDE8F08700000AD72340C4
:10225000D7A3124202000020EC000020240000203E
:10226000000048427B1462420038C7474800002003
:102270000000FA430000FAC354F2FFFF70477047B2
:10228000FEF7B2BA30B58FB028216846FDF773FF6C
:1022900014210AA8FDF76FFF01210804CDE9001001
:1022A0000024029402250491CDE907504FF4E01078
:1022B00009906846FEF70CFC08B172B6FEE70F20E5
:1022C000CDE90A054FF48060CDE90C4002210AA84F
:1022D0000E94FEF721FB002801D072B6FEE70FB086
:1022E00030BD70470148FFF705B80000A40000208A
:1022F0000148FEF7FFBF0000EC0000200148FEF798
:10230000F9BF0000340100200148FEF7F3BF0000D0
:102310007C010020F0B50268204C214D214E224F57
:10232000224B4FF0804CA04209D0984207D0604524
:1023300005D0A84203D0B04201D0B84204D122F067
:10234000700E4A6842EA0E02A04209D0984207D0B5
:10235000604505D0A84203D0B04201D0B84203D1B5
:1023600022F44075CA682A434D6922F080022A434C
:1023700002608A68C2620A688262A04201D0984202
:1023800001D109690163012141610169C90703D0D4
:10239000016921F001010161F0BD0000002C014044
:1023A0000004004000080040000C004000340140E0
:1023B00010B501F01F030121046A99408C430462A7
:1023C000016A9A401143016210BD10B5846842EA67
:1023D000032224F47F440A432243826010BD8268B2
:1023E00022F070020A4342F007018160704700004A
:1023F000F0B5036A026A22F001020262426884694F
:10240000124E24F073050C682C4323F002058B68F0
:102410002B430D4DA84201D0B04205D123F008074F
:10242000CB683B4323F00403A84201D0B04205D15E
:102430004D6922F4407215438A692A4342608461DF
:10244000496841630362F0BD002C01400034014043
:10245000F0B5026A036A23F01003036243688469DB
:102460000D6824F4E64444EA05248D6822F0200235
:1024700042EA05120F4D104EA84201D0B04206D1DB
:10248000CF6822F0800242EA071222F04002A842FE
:1024900001D0B04207D14D6923F4406343EA85037C
:1024A0008D6943EA85034360846149688163026200
:1024B000F0BD0000002C014000340140F0B5026A7C
:1024C000036A23F4807303624368C46922F40072D0
:1024D00024F073050C68124E2C438D6842EA0522E5
:1024E0000E4DA84201D0B04206D1CF6822F400625E
:1024F00042EA072222F48062A84201D0B04207D10A
:102500004D6923F4405343EA05138D6943EA0513EB
:102510004360C4614968C1630262F0BD002C0140A0
:102520000034014030B5046A026A22F4805202622B
:102530004268C3690D6823F4E64343EA05238D68C6
:1025400024F4005444EA0534084DA84202D0084D52
:10255000A84204D14D6922F4804242EA85124260C9
:10256000C36149680164046230BD0000002C014071
:102570000034014010B5036A046A24F001040462C7
:10258000846924F0F00444EA021423F00A020A43A6
:102590008461026210BD10B5036A046A24F010045D
:1025A0000462846923F0A00324F4704444EA0232F4
:1025B00043EA01118261016210BD10B5406A002139
:1025C000C185C184FFF7C2F810BD01680C3151E824
:1025D000002F22F4907241E80023002BF5D101680E
:1025E000143151E8002F22F0010241E80023002BB2
:1025F000F5D1016B012909D101680C3151E8002F97
:1026000022F0100241E80023002BF5D1202180F8B0
:10261000421000210163704708B590F8421022294A
:1026200001D0022008BD82684FF480539A4201D144
:10263000016921B1816A9A421BD04AB10AE002685D
:10264000816A5268C2F308020A80816A891C08E024
:10265000026972B10268526802F07F020A70816AF0
:10266000491C8162C18D491E0904090CC18503D032
:102670001BE002685268F1E70168CA6822F0200294
:10268000CA600168CA6822F48072CA6001684A6937
:1026900022F001024A61202180F8421000214163AA
:1026A000026B012A03D0FFF709FA002008BD01637D
:1026B00001680C3151E8002F22F0100241E800239C
:1026C000002BF5D101680A68D20602D50A6849686C
:1026D0000091818DFFF739F8E7E7000070B50446F7
:1026E00000680169E26821F44051114301612169E8
:1026F000A0680843616908432168CA6841F20C6315
:102700009A430243CA6020684169A26921F440717A
:10271000114341611E492068884202D1FEF7A2F9A7
:1027200001E0FEF78FF900EBC00101EB00126068D9
:1027300064218000B2FBF0F3B3FBF1F36FF01806F5
:102740007343B2FBF0F5B2FBF0F605EB83053223E1
:1027500003EB0515B5FBF1F5B6FBF1F605F0F00559
:1027600005EB0615B2FBF0F6B2FBF0F0B0FBF1F0B2
:102770006FF01802504306EB800003EB0010B0FB33
:10278000F1F0216800F00F002844886070BD00005F
:102790000038014081628285C28500214164222186
:1027A00080F84210016921B10168CA6842F4807260
:1027B000CA6001684A6942F001024A610068C16862
:1027C00041F02001C160002070472DE9F843984690
:1027D00017460D460446089E24E0701C22D0FDF7E3
:1027E000FDFFA0EB0800B0421AD8CEB12068C16846
:1027F000490717D5802D15D0402D13D00168C94346
:1028000009070FD401680025406800902046FFF7B3
:10281000DCFE0820606484F840500120BDE8F883A5
:102820000320FBE72068006835EA000004D00020A0
:10283000B842D2D00020F1E70120F9E70148FEF7C5
:1028400087BF00000C020020FEE70907090E0028E0
:1028500004DB00F1E02080F80014704700F00F0066
:1028600000F1E02080F8141D704702E008C8121F34
:1028700008C1002AFAD170477047002001E001C169
:10288000121F002AFBD170470A4A0129126807D09B
:1028900002290DD11064002289030748FDF798BF73
:1028A00041F61F41081AD063012210210348F5E7C1
:1028B00070470000C4010020000C014000100140DE
:1028C0000A4A012912680BD002290ED141F61F4194
:1028D000081A106401220648D10300BFFDF778BF33
:1028E000D063002210210348F8E77047C40100209C
:1028F000000C014000100140FDF77EFFFFF7C2FC15
:10290000FFF798F9FFF7F4F9FFF742FAFFF776FAC5
:10291000FFF76AFBFFF710FBFFF7A6FAFFF7D8FAFD
:102920003C212048FEF78AFC3C211F48FEF786FC2C
:102930001C480068C16841F00101C1601A48006884
:10294000C16841F00101C16008211848FEF75CFE32
:102950000C211648FEF758FE00211548FEF754FEDC
:102960001448FEF723FB1448FEF720FB134D002408
:102970005A206C70AC7000F03BF80122A91D104881
:10298000FFF78EF8012291030E48FDF721FF28780A
:10299000012802D100F018F82C700520FDF70AFE7E
:1029A000F5E70000A4000020EC000020C401002096
:1029B0005C000020340100207C0100200000002089
:1029C0000C020020000C014010B5C8230822064963
:1029D0000648FFF7DDF80449C8230822BDE8104087
:1029E00008310248FFF7D4B84C0000200C02002048
:1029F00010B500F007F802490968486310BD0000EF
:102A00005C00002010B5FDF792FC0549FDF716FCAF
:102A10000449FDF7BBFBFDF7A8FC80B210BD000028
:102A20001CC731410000FA430102020304050607F6
:102A300008090A0B0C0D0E0F10100000000000001A
:102A4000000001020304060708090000000001025B
:102A500003040000742A0008000000205C0000004D
:102A60006A280008D02A00085C000020FC0500004D
:102A70007A280008000000000000000000000000AC
:102A80000000000000000000000000000000000046
:102A90000000000000000000000000000100000035
:102AA000100000000000000000127A00000000008A
:102AB0000000000000000000000000000000000016
:102AC000569100000000551156910000000066115B
:0400000508000131BD
:00000001FF
